{
  "contractName": "Degen_Token",
  "abi": [
    {
      "inputs": [],
      "stateMutability": "nonpayable",
      "type": "constructor"
    },
    {
      "anonymous": false,
      "inputs": [
        {
          "indexed": true,
          "internalType": "address",
          "name": "account",
          "type": "address"
        }
      ],
      "name": "AccountFrozen",
      "type": "event"
    },
    {
      "anonymous": false,
      "inputs": [
        {
          "indexed": true,
          "internalType": "address",
          "name": "account",
          "type": "address"
        }
      ],
      "name": "AccountUnfrozen",
      "type": "event"
    },
    {
      "anonymous": false,
      "inputs": [
        {
          "indexed": true,
          "internalType": "address",
          "name": "owner",
          "type": "address"
        },
        {
          "indexed": true,
          "internalType": "address",
          "name": "spender",
          "type": "address"
        },
        {
          "indexed": false,
          "internalType": "uint256",
          "name": "value",
          "type": "uint256"
        }
      ],
      "name": "Approval",
      "type": "event"
    },
    {
      "anonymous": false,
      "inputs": [
        {
          "indexed": true,
          "internalType": "address",
          "name": "from",
          "type": "address"
        },
        {
          "indexed": false,
          "internalType": "uint256",
          "name": "value",
          "type": "uint256"
        }
      ],
      "name": "BurnToken",
      "type": "event"
    },
    {
      "anonymous": false,
      "inputs": [
        {
          "indexed": true,
          "internalType": "address",
          "name": "to",
          "type": "address"
        },
        {
          "indexed": false,
          "internalType": "uint256",
          "name": "value",
          "type": "uint256"
        }
      ],
      "name": "MintToken",
      "type": "event"
    },
    {
      "anonymous": false,
      "inputs": [
        {
          "indexed": true,
          "internalType": "address",
          "name": "previousOwner",
          "type": "address"
        },
        {
          "indexed": true,
          "internalType": "address",
          "name": "newOwner",
          "type": "address"
        }
      ],
      "name": "OwnershipTransferred",
      "type": "event"
    },
    {
      "anonymous": false,
      "inputs": [
        {
          "indexed": false,
          "internalType": "string",
          "name": "message",
          "type": "string"
        }
      ],
      "name": "RedeemSuccessMessage",
      "type": "event"
    },
    {
      "anonymous": false,
      "inputs": [
        {
          "indexed": true,
          "internalType": "address",
          "name": "player",
          "type": "address"
        },
        {
          "indexed": false,
          "internalType": "string",
          "name": "itemName",
          "type": "string"
        }
      ],
      "name": "Redeem_Reward",
      "type": "event"
    },
    {
      "anonymous": false,
      "inputs": [
        {
          "indexed": true,
          "internalType": "address",
          "name": "from",
          "type": "address"
        },
        {
          "indexed": true,
          "internalType": "address",
          "name": "to",
          "type": "address"
        },
        {
          "indexed": false,
          "internalType": "uint256",
          "name": "value",
          "type": "uint256"
        }
      ],
      "name": "Transfer",
      "type": "event"
    },
    {
      "inputs": [
        {
          "internalType": "address",
          "name": "owner",
          "type": "address"
        },
        {
          "internalType": "address",
          "name": "spender",
          "type": "address"
        }
      ],
      "name": "allowance",
      "outputs": [
        {
          "internalType": "uint256",
          "name": "",
          "type": "uint256"
        }
      ],
      "stateMutability": "view",
      "type": "function",
      "constant": true
    },
    {
      "inputs": [
        {
          "internalType": "address",
          "name": "spender",
          "type": "address"
        },
        {
          "internalType": "uint256",
          "name": "amount",
          "type": "uint256"
        }
      ],
      "name": "approve",
      "outputs": [
        {
          "internalType": "bool",
          "name": "",
          "type": "bool"
        }
      ],
      "stateMutability": "nonpayable",
      "type": "function"
    },
    {
      "inputs": [
        {
          "internalType": "address",
          "name": "account",
          "type": "address"
        }
      ],
      "name": "balanceOf",
      "outputs": [
        {
          "internalType": "uint256",
          "name": "",
          "type": "uint256"
        }
      ],
      "stateMutability": "view",
      "type": "function",
      "constant": true
    },
    {
      "inputs": [
        {
          "internalType": "uint256",
          "name": "amount",
          "type": "uint256"
        }
      ],
      "name": "burn",
      "outputs": [],
      "stateMutability": "nonpayable",
      "type": "function"
    },
    {
      "inputs": [
        {
          "internalType": "address",
          "name": "account",
          "type": "address"
        },
        {
          "internalType": "uint256",
          "name": "amount",
          "type": "uint256"
        }
      ],
      "name": "burnFrom",
      "outputs": [],
      "stateMutability": "nonpayable",
      "type": "function"
    },
    {
      "inputs": [],
      "name": "decimals",
      "outputs": [
        {
          "internalType": "uint8",
          "name": "",
          "type": "uint8"
        }
      ],
      "stateMutability": "view",
      "type": "function",
      "constant": true
    },
    {
      "inputs": [
        {
          "internalType": "address",
          "name": "spender",
          "type": "address"
        },
        {
          "internalType": "uint256",
          "name": "subtractedValue",
          "type": "uint256"
        }
      ],
      "name": "decreaseAllowance",
      "outputs": [
        {
          "internalType": "bool",
          "name": "",
          "type": "bool"
        }
      ],
      "stateMutability": "nonpayable",
      "type": "function"
    },
    {
      "inputs": [
        {
          "internalType": "address",
          "name": "spender",
          "type": "address"
        },
        {
          "internalType": "uint256",
          "name": "addedValue",
          "type": "uint256"
        }
      ],
      "name": "increaseAllowance",
      "outputs": [
        {
          "internalType": "bool",
          "name": "",
          "type": "bool"
        }
      ],
      "stateMutability": "nonpayable",
      "type": "function"
    },
    {
      "inputs": [],
      "name": "name",
      "outputs": [
        {
          "internalType": "string",
          "name": "",
          "type": "string"
        }
      ],
      "stateMutability": "view",
      "type": "function",
      "constant": true
    },
    {
      "inputs": [],
      "name": "owner",
      "outputs": [
        {
          "internalType": "address",
          "name": "",
          "type": "address"
        }
      ],
      "stateMutability": "view",
      "type": "function",
      "constant": true
    },
    {
      "inputs": [],
      "name": "renounceOwnership",
      "outputs": [],
      "stateMutability": "nonpayable",
      "type": "function"
    },
    {
      "inputs": [],
      "name": "symbol",
      "outputs": [
        {
          "internalType": "string",
          "name": "",
          "type": "string"
        }
      ],
      "stateMutability": "view",
      "type": "function",
      "constant": true
    },
    {
      "inputs": [],
      "name": "totalSupply",
      "outputs": [
        {
          "internalType": "uint256",
          "name": "",
          "type": "uint256"
        }
      ],
      "stateMutability": "view",
      "type": "function",
      "constant": true
    },
    {
      "inputs": [
        {
          "internalType": "address",
          "name": "newOwner",
          "type": "address"
        }
      ],
      "name": "transferOwnership",
      "outputs": [],
      "stateMutability": "nonpayable",
      "type": "function"
    },
    {
      "inputs": [
        {
          "internalType": "address",
          "name": "to",
          "type": "address"
        },
        {
          "internalType": "uint256",
          "name": "amount",
          "type": "uint256"
        }
      ],
      "name": "mint",
      "outputs": [],
      "stateMutability": "nonpayable",
      "type": "function"
    },
    {
      "inputs": [
        {
          "internalType": "uint256",
          "name": "amount",
          "type": "uint256"
        }
      ],
      "name": "burntokens",
      "outputs": [],
      "stateMutability": "nonpayable",
      "type": "function"
    },
    {
      "inputs": [],
      "name": "getRewards",
      "outputs": [
        {
          "internalType": "string",
          "name": "",
          "type": "string"
        }
      ],
      "stateMutability": "pure",
      "type": "function",
      "constant": true
    },
    {
      "inputs": [
        {
          "internalType": "uint256",
          "name": "choice",
          "type": "uint256"
        }
      ],
      "name": "redeem",
      "outputs": [],
      "stateMutability": "nonpayable",
      "type": "function"
    },
    {
      "inputs": [],
      "name": "checkBalance",
      "outputs": [
        {
          "internalType": "uint256",
          "name": "",
          "type": "uint256"
        }
      ],
      "stateMutability": "view",
      "type": "function",
      "constant": true
    },
    {
      "inputs": [
        {
          "internalType": "address",
          "name": "reciever",
          "type": "address"
        },
        {
          "internalType": "uint256",
          "name": "amount",
          "type": "uint256"
        }
      ],
      "name": "transfer",
      "outputs": [
        {
          "internalType": "bool",
          "name": "",
          "type": "bool"
        }
      ],
      "stateMutability": "nonpayable",
      "type": "function"
    },
    {
      "inputs": [
        {
          "internalType": "address",
          "name": "sender",
          "type": "address"
        },
        {
          "internalType": "address",
          "name": "reciever",
          "type": "address"
        },
        {
          "internalType": "uint256",
          "name": "amount",
          "type": "uint256"
        }
      ],
      "name": "transferFrom",
      "outputs": [
        {
          "internalType": "bool",
          "name": "",
          "type": "bool"
        }
      ],
      "stateMutability": "nonpayable",
      "type": "function"
    },
    {
      "inputs": [
        {
          "internalType": "address",
          "name": "account",
          "type": "address"
        }
      ],
      "name": "freezeAccount",
      "outputs": [],
      "stateMutability": "nonpayable",
      "type": "function"
    },
    {
      "inputs": [
        {
          "internalType": "address",
          "name": "account",
          "type": "address"
        }
      ],
      "name": "unfreezeAccount",
      "outputs": [],
      "stateMutability": "nonpayable",
      "type": "function"
    },
    {
      "inputs": [
        {
          "internalType": "address",
          "name": "account",
          "type": "address"
        }
      ],
      "name": "isAccountFrozen",
      "outputs": [
        {
          "internalType": "bool",
          "name": "",
          "type": "bool"
        }
      ],
      "stateMutability": "view",
      "type": "function",
      "constant": true
    }
  ],
  "bytecode": "0x60806040523480156200001157600080fd5b506040518060400160405280600581526020017f446567656e0000000000000000000000000000000000000000000000000000008152506040518060400160405280600381526020017f44474e0000000000000000000000000000000000000000000000000000000000815250816003908051906020019062000096929190620001a6565b508060049080519060200190620000af929190620001a6565b505050620000d2620000c6620000d860201b60201c565b620000e060201b60201c565b620002bb565b600033905090565b6000600560009054906101000a900473ffffffffffffffffffffffffffffffffffffffff16905081600560006101000a81548173ffffffffffffffffffffffffffffffffffffffff021916908373ffffffffffffffffffffffffffffffffffffffff1602179055508173ffffffffffffffffffffffffffffffffffffffff168173ffffffffffffffffffffffffffffffffffffffff167f8be0079c531659141344cd1fd0a4f28419497f9722a3daafe3b4186f6b6457e060405160405180910390a35050565b828054620001b49062000285565b90600052602060002090601f016020900481019282620001d8576000855562000224565b82601f10620001f357805160ff191683800117855562000224565b8280016001018555821562000224579182015b828111156200022357825182559160200191906001019062000206565b5b50905062000233919062000237565b5090565b5b808211156200025257600081600090555060010162000238565b5090565b7f4e487b7100000000000000000000000000000000000000000000000000000000600052602260045260246000fd5b600060028204905060018216806200029e57607f821691505b60208210811415620002b557620002b462000256565b5b50919050565b612d1e80620002cb6000396000f3fe608060405234801561001057600080fd5b50600436106101585760003560e01c806379cc6790116100c3578063c71daccb1161007c578063c71daccb146103c7578063db006a75146103e5578063dd62ed3e14610401578063e816d97f14610431578063f26c159f14610461578063f2fde38b1461047d57610158565b806379cc6790146102f35780638da5cb5b1461030f57806394b0780f1461032d57806395d89b4114610349578063a457c2d714610367578063a9059cbb1461039757610158565b80633950935111610115578063395093511461023557806340c10f191461026557806342966c681461028157806370a082311461029d578063715018a6146102cd578063788649ea146102d757610158565b80630572b0cc1461015d57806306fdde031461017b578063095ea7b31461019957806318160ddd146101c957806323b872dd146101e7578063313ce56714610217575b600080fd5b610165610499565b6040516101729190611aa2565b60405180910390f35b6101836104ba565b6040516101909190611aa2565b60405180910390f35b6101b360048036038101906101ae9190611b5d565b61054c565b6040516101c09190611bb8565b60405180910390f35b6101d161056f565b6040516101de9190611be2565b60405180910390f35b61020160048036038101906101fc9190611bfd565b610579565b60405161020e9190611bb8565b60405180910390f35b61021f61059a565b60405161022c9190611c6c565b60405180910390f35b61024f600480360381019061024a9190611b5d565b6105a3565b60405161025c9190611bb8565b60405180910390f35b61027f600480360381019061027a9190611b5d565b6105da565b005b61029b60048036038101906102969190611c87565b61063e565b005b6102b760048036038101906102b29190611cb4565b610652565b6040516102c49190611be2565b60405180910390f35b6102d561069a565b005b6102f160048036038101906102ec9190611cb4565b6106ae565b005b61030d60048036038101906103089190611b5d565b610754565b005b610317610774565b6040516103249190611cf0565b60405180910390f35b61034760048036038101906103429190611c87565b61079e565b005b610351610844565b60405161035e9190611aa2565b60405180910390f35b610381600480360381019061037c9190611b5d565b6108d6565b60405161038e9190611bb8565b60405180910390f35b6103b160048036038101906103ac9190611b5d565b61094d565b6040516103be9190611bb8565b60405180910390f35b6103cf610961565b6040516103dc9190611be2565b60405180910390f35b6103ff60048036038101906103fa9190611c87565b610971565b005b61041b60048036038101906104169190611d0b565b610e66565b6040516104289190611be2565b60405180910390f35b61044b60048036038101906104469190611cb4565b610eed565b6040516104589190611bb8565b60405180910390f35b61047b60048036038101906104769190611cb4565b610f43565b005b61049760048036038101906104929190611cb4565b610fe9565b005b606060405180610120016040528060e78152602001612c0260e79139905090565b6060600380546104c990611d7a565b80601f01602080910402602001604051908101604052809291908181526020018280546104f590611d7a565b80156105425780601f1061051757610100808354040283529160200191610542565b820191906000526020600020905b81548152906001019060200180831161052557829003601f168201915b5050505050905090565b60008061055761106d565b9050610564818585611075565b600191505092915050565b6000600254905090565b6000610585338361054c565b50610591848484611240565b90509392505050565b60006012905090565b6000806105ae61106d565b90506105cf8185856105c08589610e66565b6105ca9190611ddb565b611075565b600191505092915050565b6105e261126f565b6105ec82826112ed565b8173ffffffffffffffffffffffffffffffffffffffff167fdcdea898caf5576419f89caf69301592a4758349a0bd62300b58849213420a72826040516106329190611be2565b60405180910390a25050565b61064f61064961106d565b82611444565b50565b60008060008373ffffffffffffffffffffffffffffffffffffffff1673ffffffffffffffffffffffffffffffffffffffff168152602001908152602001600020549050919050565b6106a261126f565b6106ac6000611612565b565b6106b661126f565b6000600660008373ffffffffffffffffffffffffffffffffffffffff1673ffffffffffffffffffffffffffffffffffffffff16815260200190815260200160002060006101000a81548160ff0219169083151502179055508073ffffffffffffffffffffffffffffffffffffffff167ff915cd9fe234de6e8d3afe7bf2388d35b2b6d48e8c629a24602019bde79c213a60405160405180910390a250565b6107668261076061106d565b836116d8565b6107708282611444565b5050565b6000600560009054906101000a900473ffffffffffffffffffffffffffffffffffffffff16905090565b806107a833610652565b10156107e9576040517f08c379a00000000000000000000000000000000000000000000000000000000081526004016107e090611ea3565b60405180910390fd5b6107f33382611444565b3373ffffffffffffffffffffffffffffffffffffffff167fe12923b90d8a6ca7dc57994322d2afba0be75f98e97e2b892fd34c0d7c622969826040516108399190611be2565b60405180910390a250565b60606004805461085390611d7a565b80601f016020809104026020016040519081016040528092919081815260200182805461087f90611d7a565b80156108cc5780601f106108a1576101008083540402835291602001916108cc565b820191906000526020600020905b8154815290600101906020018083116108af57829003601f168201915b5050505050905090565b6000806108e161106d565b905060006108ef8286610e66565b905083811015610934576040517f08c379a000000000000000000000000000000000000000000000000000000000815260040161092b90611f35565b60405180910390fd5b6109418286868403611075565b60019250505092915050565b60006109598383611764565b905092915050565b600061096c33610652565b905090565b60058111156109b5576040517f08c379a00000000000000000000000000000000000000000000000000000000081526004016109ac90611fa1565b60405180910390fd5b6001811415610aa5576103e86109ca33610652565b1015610a0b576040517f08c379a0000000000000000000000000000000000000000000000000000000008152600401610a0290612033565b60405180910390fd5b610a1f33610a17610774565b6103e8611787565b3373ffffffffffffffffffffffffffffffffffffffff167fbe59f85cb506720a9e623428f22cfa6923e0ba060bf9cc526c7825ff013715d7604051610a639061209f565b60405180910390a27f80fdff8e11a5b408bf7e18f0c126e482d06b77a8dab91d33e93bfd93faa8a738604051610a9890612157565b60405180910390a1610e63565b6002811415610b95576101f4610aba33610652565b1015610afb576040517f08c379a0000000000000000000000000000000000000000000000000000000008152600401610af290612033565b60405180910390fd5b610b0f33610b07610774565b6101f4611787565b3373ffffffffffffffffffffffffffffffffffffffff167fbe59f85cb506720a9e623428f22cfa6923e0ba060bf9cc526c7825ff013715d7604051610b53906121c3565b60405180910390a27f80fdff8e11a5b408bf7e18f0c126e482d06b77a8dab91d33e93bfd93faa8a738604051610b889061227b565b60405180910390a1610e62565b6003811415610c855761015e610baa33610652565b1015610beb576040517f08c379a0000000000000000000000000000000000000000000000000000000008152600401610be290612033565b60405180910390fd5b610bff33610bf7610774565b61015e611787565b3373ffffffffffffffffffffffffffffffffffffffff167fbe59f85cb506720a9e623428f22cfa6923e0ba060bf9cc526c7825ff013715d7604051610c43906122e7565b60405180910390a27f80fdff8e11a5b408bf7e18f0c126e482d06b77a8dab91d33e93bfd93faa8a738604051610c789061239f565b60405180910390a1610e61565b6004811415610d7557610320610c9a33610652565b1015610cdb576040517f08c379a0000000000000000000000000000000000000000000000000000000008152600401610cd290612033565b60405180910390fd5b610cef33610ce7610774565b610320611787565b3373ffffffffffffffffffffffffffffffffffffffff167fbe59f85cb506720a9e623428f22cfa6923e0ba060bf9cc526c7825ff013715d7604051610d339061240b565b60405180910390a27f80fdff8e11a5b408bf7e18f0c126e482d06b77a8dab91d33e93bfd93faa8a738604051610d68906124c3565b60405180910390a1610e60565b6005811415610e5f5760fa610d8933610652565b1015610dca576040517f08c379a0000000000000000000000000000000000000000000000000000000008152600401610dc190612033565b60405180910390fd5b610ddd33610dd6610774565b60fa611787565b3373ffffffffffffffffffffffffffffffffffffffff167fbe59f85cb506720a9e623428f22cfa6923e0ba060bf9cc526c7825ff013715d7604051610e2190612555565b60405180910390a27f80fdff8e11a5b408bf7e18f0c126e482d06b77a8dab91d33e93bfd93faa8a738604051610e569061260d565b60405180910390a15b5b5b5b5b50565b6000600160008473ffffffffffffffffffffffffffffffffffffffff1673ffffffffffffffffffffffffffffffffffffffff16815260200190815260200160002060008373ffffffffffffffffffffffffffffffffffffffff1673ffffffffffffffffffffffffffffffffffffffff16815260200190815260200160002054905092915050565b6000600660008373ffffffffffffffffffffffffffffffffffffffff1673ffffffffffffffffffffffffffffffffffffffff16815260200190815260200160002060009054906101000a900460ff169050919050565b610f4b61126f565b6001600660008373ffffffffffffffffffffffffffffffffffffffff1673ffffffffffffffffffffffffffffffffffffffff16815260200190815260200160002060006101000a81548160ff0219169083151502179055508073ffffffffffffffffffffffffffffffffffffffff167f4f2a367e694e71282f29ab5eaa04c4c0be45ac5bf2ca74fb67068b98bdc2887d60405160405180910390a250565b610ff161126f565b600073ffffffffffffffffffffffffffffffffffffffff168173ffffffffffffffffffffffffffffffffffffffff161415611061576040517f08c379a00000000000000000000000000000000000000000000000000000000081526004016110589061269f565b60405180910390fd5b61106a81611612565b50565b600033905090565b600073ffffffffffffffffffffffffffffffffffffffff168373ffffffffffffffffffffffffffffffffffffffff1614156110e5576040517f08c379a00000000000000000000000000000000000000000000000000000000081526004016110dc90612731565b60405180910390fd5b600073ffffffffffffffffffffffffffffffffffffffff168273ffffffffffffffffffffffffffffffffffffffff161415611155576040517f08c379a000000000000000000000000000000000000000000000000000000000815260040161114c906127c3565b60405180910390fd5b80600160008573ffffffffffffffffffffffffffffffffffffffff1673ffffffffffffffffffffffffffffffffffffffff16815260200190815260200160002060008473ffffffffffffffffffffffffffffffffffffffff1673ffffffffffffffffffffffffffffffffffffffff168152602001908152602001600020819055508173ffffffffffffffffffffffffffffffffffffffff168373ffffffffffffffffffffffffffffffffffffffff167f8c5be1e5ebec7d5bd14f71427d1e84f3dd0314c0f7b2291e5b200ac8c7c3b925836040516112339190611be2565b60405180910390a3505050565b60008061124b61106d565b90506112588582856116d8565b611263858585611787565b60019150509392505050565b61127761106d565b73ffffffffffffffffffffffffffffffffffffffff16611295610774565b73ffffffffffffffffffffffffffffffffffffffff16146112eb576040517f08c379a00000000000000000000000000000000000000000000000000000000081526004016112e29061282f565b60405180910390fd5b565b600073ffffffffffffffffffffffffffffffffffffffff168273ffffffffffffffffffffffffffffffffffffffff16141561135d576040517f08c379a00000000000000000000000000000000000000000000000000000000081526004016113549061289b565b60405180910390fd5b611369600083836119ff565b806002600082825461137b9190611ddb565b92505081905550806000808473ffffffffffffffffffffffffffffffffffffffff1673ffffffffffffffffffffffffffffffffffffffff168152602001908152602001600020600082825401925050819055508173ffffffffffffffffffffffffffffffffffffffff16600073ffffffffffffffffffffffffffffffffffffffff167fddf252ad1be2c89b69c2b068fc378daa952ba7f163c4a11628f55a4df523b3ef8360405161142c9190611be2565b60405180910390a361144060008383611a04565b5050565b600073ffffffffffffffffffffffffffffffffffffffff168273ffffffffffffffffffffffffffffffffffffffff1614156114b4576040517f08c379a00000000000000000000000000000000000000000000000000000000081526004016114ab9061292d565b60405180910390fd5b6114c0826000836119ff565b60008060008473ffffffffffffffffffffffffffffffffffffffff1673ffffffffffffffffffffffffffffffffffffffff16815260200190815260200160002054905081811015611546576040517f08c379a000000000000000000000000000000000000000000000000000000000815260040161153d906129bf565b60405180910390fd5b8181036000808573ffffffffffffffffffffffffffffffffffffffff1673ffffffffffffffffffffffffffffffffffffffff1681526020019081526020016000208190555081600260008282540392505081905550600073ffffffffffffffffffffffffffffffffffffffff168373ffffffffffffffffffffffffffffffffffffffff167fddf252ad1be2c89b69c2b068fc378daa952ba7f163c4a11628f55a4df523b3ef846040516115f99190611be2565b60405180910390a361160d83600084611a04565b505050565b6000600560009054906101000a900473ffffffffffffffffffffffffffffffffffffffff16905081600560006101000a81548173ffffffffffffffffffffffffffffffffffffffff021916908373ffffffffffffffffffffffffffffffffffffffff1602179055508173ffffffffffffffffffffffffffffffffffffffff168173ffffffffffffffffffffffffffffffffffffffff167f8be0079c531659141344cd1fd0a4f28419497f9722a3daafe3b4186f6b6457e060405160405180910390a35050565b60006116e48484610e66565b90507fffffffffffffffffffffffffffffffffffffffffffffffffffffffffffffffff811461175e5781811015611750576040517f08c379a000000000000000000000000000000000000000000000000000000000815260040161174790612a2b565b60405180910390fd5b61175d8484848403611075565b5b50505050565b60008061176f61106d565b905061177c818585611787565b600191505092915050565b600073ffffffffffffffffffffffffffffffffffffffff168373ffffffffffffffffffffffffffffffffffffffff1614156117f7576040517f08c379a00000000000000000000000000000000000000000000000000000000081526004016117ee90612abd565b60405180910390fd5b600073ffffffffffffffffffffffffffffffffffffffff168273ffffffffffffffffffffffffffffffffffffffff161415611867576040517f08c379a000000000000000000000000000000000000000000000000000000000815260040161185e90612b4f565b60405180910390fd5b6118728383836119ff565b60008060008573ffffffffffffffffffffffffffffffffffffffff1673ffffffffffffffffffffffffffffffffffffffff168152602001908152602001600020549050818110156118f8576040517f08c379a00000000000000000000000000000000000000000000000000000000081526004016118ef90612be1565b60405180910390fd5b8181036000808673ffffffffffffffffffffffffffffffffffffffff1673ffffffffffffffffffffffffffffffffffffffff16815260200190815260200160002081905550816000808573ffffffffffffffffffffffffffffffffffffffff1673ffffffffffffffffffffffffffffffffffffffff168152602001908152602001600020600082825401925050819055508273ffffffffffffffffffffffffffffffffffffffff168473ffffffffffffffffffffffffffffffffffffffff167fddf252ad1be2c89b69c2b068fc378daa952ba7f163c4a11628f55a4df523b3ef846040516119e69190611be2565b60405180910390a36119f9848484611a04565b50505050565b505050565b505050565b600081519050919050565b600082825260208201905092915050565b60005b83811015611a43578082015181840152602081019050611a28565b83811115611a52576000848401525b50505050565b6000601f19601f8301169050919050565b6000611a7482611a09565b611a7e8185611a14565b9350611a8e818560208601611a25565b611a9781611a58565b840191505092915050565b60006020820190508181036000830152611abc8184611a69565b905092915050565b600080fd5b600073ffffffffffffffffffffffffffffffffffffffff82169050919050565b6000611af482611ac9565b9050919050565b611b0481611ae9565b8114611b0f57600080fd5b50565b600081359050611b2181611afb565b92915050565b6000819050919050565b611b3a81611b27565b8114611b4557600080fd5b50565b600081359050611b5781611b31565b92915050565b60008060408385031215611b7457611b73611ac4565b5b6000611b8285828601611b12565b9250506020611b9385828601611b48565b9150509250929050565b60008115159050919050565b611bb281611b9d565b82525050565b6000602082019050611bcd6000830184611ba9565b92915050565b611bdc81611b27565b82525050565b6000602082019050611bf76000830184611bd3565b92915050565b600080600060608486031215611c1657611c15611ac4565b5b6000611c2486828701611b12565b9350506020611c3586828701611b12565b9250506040611c4686828701611b48565b9150509250925092565b600060ff82169050919050565b611c6681611c50565b82525050565b6000602082019050611c816000830184611c5d565b92915050565b600060208284031215611c9d57611c9c611ac4565b5b6000611cab84828501611b48565b91505092915050565b600060208284031215611cca57611cc9611ac4565b5b6000611cd884828501611b12565b91505092915050565b611cea81611ae9565b82525050565b6000602082019050611d056000830184611ce1565b92915050565b60008060408385031215611d2257611d21611ac4565b5b6000611d3085828601611b12565b9250506020611d4185828601611b12565b9150509250929050565b7f4e487b7100000000000000000000000000000000000000000000000000000000600052602260045260246000fd5b60006002820490506001821680611d9257607f821691505b60208210811415611da657611da5611d4b565b5b50919050565b7f4e487b7100000000000000000000000000000000000000000000000000000000600052601160045260246000fd5b6000611de682611b27565b9150611df183611b27565b9250827fffffffffffffffffffffffffffffffffffffffffffffffffffffffffffffffff03821115611e2657611e25611dac565b5b828201905092915050565b7f496e73756666696369656e742062616c616e6365202c20506c6561736520656160008201527f726e206f722062757920736f6d65206d6f726520746f6b656e73000000000000602082015250565b6000611e8d603a83611a14565b9150611e9882611e31565b604082019050919050565b60006020820190508181036000830152611ebc81611e80565b9050919050565b7f45524332303a2064656372656173656420616c6c6f77616e63652062656c6f7760008201527f207a65726f000000000000000000000000000000000000000000000000000000602082015250565b6000611f1f602583611a14565b9150611f2a82611ec3565b604082019050919050565b60006020820190508181036000830152611f4e81611f12565b9050919050565b7f496e76616c69642073656c656374696f6e000000000000000000000000000000600082015250565b6000611f8b601183611a14565b9150611f9682611f55565b602082019050919050565b60006020820190508181036000830152611fba81611f7e565b9050919050565b7f496e73756666696369656e742062616c616e63652c20706c656173652065617260008201527f6e206f722062757920736f6d65206d6f726520746f6b656e7300000000000000602082015250565b600061201d603983611a14565b915061202882611fc1565b604082019050919050565b6000602082019050818103600083015261204c81612010565b9050919050565b7f4c6567656e6461727920447261676f6e2053776f726400000000000000000000600082015250565b6000612089601683611a14565b915061209482612053565b602082019050919050565b600060208201905081810360008301526120b88161207c565b9050919050565b7f436f6e67726174756c6174696f6e732120596f7520686176652073756363657360008201527f7366756c6c792072656465656d656420746865204c6567656e6461727920447260208201527f61676f6e2053776f72642e000000000000000000000000000000000000000000604082015250565b6000612141604b83611a14565b915061214c826120bf565b606082019050919050565b6000602082019050818103600083015261217081612134565b9050919050565b7f416e6369656e7420456c6620426f770000000000000000000000000000000000600082015250565b60006121ad600f83611a14565b91506121b882612177565b602082019050919050565b600060208201905081810360008301526121dc816121a0565b9050919050565b7f436f6e67726174756c6174696f6e732120596f7520686176652073756363657360008201527f7366756c6c792072656465656d65642074686520416e6369656e7420456c662060208201527f426f772e00000000000000000000000000000000000000000000000000000000604082015250565b6000612265604483611a14565b9150612270826121e3565b606082019050919050565b6000602082019050818103600083015261229481612258565b9050919050565b7f5468756e646572696e672057617268616d6d6572000000000000000000000000600082015250565b60006122d1601483611a14565b91506122dc8261229b565b602082019050919050565b60006020820190508181036000830152612300816122c4565b9050919050565b7f436f6e67726174756c6174696f6e732120596f7520686176652073756363657360008201527f7366756c6c792072656465656d656420746865205468756e646572696e67205760208201527f617268616d6d65722e0000000000000000000000000000000000000000000000604082015250565b6000612389604983611a14565b915061239482612307565b606082019050919050565b600060208201905081810360008301526123b88161237c565b9050919050565b7f456e6368616e7465642057697a61726420526f62650000000000000000000000600082015250565b60006123f5601583611a14565b9150612400826123bf565b602082019050919050565b60006020820190508181036000830152612424816123e8565b9050919050565b7f436f6e67726174756c6174696f6e732120596f7520686176652073756363657360008201527f7366756c6c792072656465656d65642074686520456e6368616e74656420576960208201527f7a61726420526f62652e00000000000000000000000000000000000000000000604082015250565b60006124ad604a83611a14565b91506124b88261242b565b606082019050919050565b600060208201905081810360008301526124dc816124a0565b9050919050565b7f5368696d6d6572696e6720506f74696f6e206f6620496e7669736962696c697460008201527f7900000000000000000000000000000000000000000000000000000000000000602082015250565b600061253f602183611a14565b915061254a826124e3565b604082019050919050565b6000602082019050818103600083015261256e81612532565b9050919050565b7f436f6e67726174756c6174696f6e732120596f7520686176652073756363657360008201527f7366756c6c792072656465656d656420746865205368696d6d6572696e67205060208201527f6f74696f6e206f6620496e7669736962696c6974792e00000000000000000000604082015250565b60006125f7605683611a14565b915061260282612575565b606082019050919050565b60006020820190508181036000830152612626816125ea565b9050919050565b7f4f776e61626c653a206e6577206f776e657220697320746865207a65726f206160008201527f6464726573730000000000000000000000000000000000000000000000000000602082015250565b6000612689602683611a14565b91506126948261262d565b604082019050919050565b600060208201905081810360008301526126b88161267c565b9050919050565b7f45524332303a20617070726f76652066726f6d20746865207a65726f2061646460008201527f7265737300000000000000000000000000000000000000000000000000000000602082015250565b600061271b602483611a14565b9150612726826126bf565b604082019050919050565b6000602082019050818103600083015261274a8161270e565b9050919050565b7f45524332303a20617070726f766520746f20746865207a65726f20616464726560008201527f7373000000000000000000000000000000000000000000000000000000000000602082015250565b60006127ad602283611a14565b91506127b882612751565b604082019050919050565b600060208201905081810360008301526127dc816127a0565b9050919050565b7f4f776e61626c653a2063616c6c6572206973206e6f7420746865206f776e6572600082015250565b6000612819602083611a14565b9150612824826127e3565b602082019050919050565b600060208201905081810360008301526128488161280c565b9050919050565b7f45524332303a206d696e7420746f20746865207a65726f206164647265737300600082015250565b6000612885601f83611a14565b91506128908261284f565b602082019050919050565b600060208201905081810360008301526128b481612878565b9050919050565b7f45524332303a206275726e2066726f6d20746865207a65726f2061646472657360008201527f7300000000000000000000000000000000000000000000000000000000000000602082015250565b6000612917602183611a14565b9150612922826128bb565b604082019050919050565b600060208201905081810360008301526129468161290a565b9050919050565b7f45524332303a206275726e20616d6f756e7420657863656564732062616c616e60008201527f6365000000000000000000000000000000000000000000000000000000000000602082015250565b60006129a9602283611a14565b91506129b48261294d565b604082019050919050565b600060208201905081810360008301526129d88161299c565b9050919050565b7f45524332303a20696e73756666696369656e7420616c6c6f77616e6365000000600082015250565b6000612a15601d83611a14565b9150612a20826129df565b602082019050919050565b60006020820190508181036000830152612a4481612a08565b9050919050565b7f45524332303a207472616e736665722066726f6d20746865207a65726f20616460008201527f6472657373000000000000000000000000000000000000000000000000000000602082015250565b6000612aa7602583611a14565b9150612ab282612a4b565b604082019050919050565b60006020820190508181036000830152612ad681612a9a565b9050919050565b7f45524332303a207472616e7366657220746f20746865207a65726f206164647260008201527f6573730000000000000000000000000000000000000000000000000000000000602082015250565b6000612b39602383611a14565b9150612b4482612add565b604082019050919050565b60006020820190508181036000830152612b6881612b2c565b9050919050565b7f45524332303a207472616e7366657220616d6f756e742065786365656473206260008201527f616c616e63650000000000000000000000000000000000000000000000000000602082015250565b6000612bcb602683611a14565b9150612bd682612b6f565b604082019050919050565b60006020820190508181036000830152612bfa81612bbe565b905091905056fe312e204c6567656e6461727920447261676f6e2053776f7264202876616c7565203d203130303020446567656e290a322e20416e6369656e7420456c6620426f77202876616c7565203d2035303020446567656e290a332e205468756e646572696e672057617268616d6d6572202876616c7565203d2033353020446567656e290a342e20456e6368616e7465642057697a61726420526f6265202876616c7565203d2038303020446567656e290a352e205368696d6d6572696e6720506f74696f6e206f6620496e7669736962696c697479202876616c7565203d2032353020446567656e29a264697066735822122030582c55b6b7f2cc8d19f6d44870bdd23eca739d5347c21cc79a163b800e20b964736f6c63430008090033",
  "immutableReferences": {},
  "source": "// SPDX-License-Identifier: MIT\npragma solidity ^0.8.0;\n\nimport \"@openzeppelin/contracts/token/ERC20/ERC20.sol\";\nimport \"@openzeppelin/contracts/access/Ownable.sol\";\nimport \"@openzeppelin/contracts/token/ERC20/extensions/ERC20Burnable.sol\";\n\ncontract Degen_Token is ERC20, Ownable, ERC20Burnable {\n    event MintToken(address indexed to, uint256 value);\n    event BurnToken(address indexed from, uint256 value);\n    event Redeem_Reward(address indexed player, string itemName);\n    event AccountFrozen(address indexed account);\n    event AccountUnfrozen(address indexed account);\n    event RedeemSuccessMessage(string message);\n\n    mapping(address => bool) private _frozenAccounts;\n\n    constructor() ERC20(\"Degen\", \"DGN\") {}\n\n    function mint(address to, uint256 amount) external onlyOwner {\n        _mint(to, amount);\n        emit MintToken(to, amount);\n    }\n\n    function burntokens(uint256 amount) external {\n        require(balanceOf(msg.sender) >= amount, \"Insufficient balance , Please earn or buy some more tokens\");\n        _burn(msg.sender, amount);\n        emit BurnToken(msg.sender, amount);\n    }\n\n    function getRewards() public pure returns (string memory) {\n        return\n            \"1. Legendary Dragon Sword (value = 1000 Degen)\\n2. Ancient Elf Bow (value = 500 Degen)\\n3. Thundering Warhammer (value = 350 Degen)\\n4. Enchanted Wizard Robe (value = 800 Degen)\\n5. Shimmering Potion of Invisibility (value = 250 Degen)\";\n      }\n    \n\n\n    function redeem(uint256 choice) external {\n    require(choice <= 5, \"Invalid selection\");\n\n    if (choice == 1) {\n        require(balanceOf(msg.sender) >= 1000, \"Insufficient balance, please earn or buy some more tokens\");\n        _transfer(msg.sender, owner(), 1000);\n        emit Redeem_Reward(msg.sender, \"Legendary Dragon Sword\");\n        emit RedeemSuccessMessage(\"Congratulations! You have successfully redeemed the Legendary Dragon Sword.\");\n    } else if (choice == 2) {\n        require(balanceOf(msg.sender) >= 500, \"Insufficient balance, please earn or buy some more tokens\");\n        _transfer(msg.sender, owner(), 500);\n        emit Redeem_Reward(msg.sender, \"Ancient Elf Bow\");\n        emit RedeemSuccessMessage(\"Congratulations! You have successfully redeemed the Ancient Elf Bow.\");\n    } else if (choice == 3) {\n        require(balanceOf(msg.sender) >= 350, \"Insufficient balance, please earn or buy some more tokens\");\n        _transfer(msg.sender, owner(), 350);\n        emit Redeem_Reward(msg.sender, \"Thundering Warhammer\");\n        emit RedeemSuccessMessage(\"Congratulations! You have successfully redeemed the Thundering Warhammer.\");\n    } else if (choice == 4) {\n        require(balanceOf(msg.sender) >= 800, \"Insufficient balance, please earn or buy some more tokens\");\n        _transfer(msg.sender, owner(), 800);\n        emit Redeem_Reward(msg.sender, \"Enchanted Wizard Robe\");\n        emit RedeemSuccessMessage(\"Congratulations! You have successfully redeemed the Enchanted Wizard Robe.\");\n    } else if (choice == 5) {\n        require(balanceOf(msg.sender) >= 250, \"Insufficient balance, please earn or buy some more tokens\");\n        _transfer(msg.sender, owner(), 250);\n        emit Redeem_Reward(msg.sender, \"Shimmering Potion of Invisibility\");\n        emit RedeemSuccessMessage(\"Congratulations! You have successfully redeemed the Shimmering Potion of Invisibility.\");\n    }\n}\n\n    function checkBalance() external view returns (uint) {\n        return balanceOf(msg.sender);\n    }\n\n    function transfer(address reciever, uint256 amount) public override returns (bool) {\n        return super.transfer(reciever, amount);\n    }\n\n    function transferFrom(address sender, address reciever, uint256 amount) public override returns (bool) {\n        approve(msg.sender, amount);\n        return super.transferFrom(sender, reciever, amount);\n    }\n\n    function freezeAccount(address account) external onlyOwner {\n        _frozenAccounts[account] = true;\n        emit AccountFrozen(account);\n    }\n\n    function unfreezeAccount(address account) external onlyOwner {\n        _frozenAccounts[account] = false;\n        emit AccountUnfrozen(account);\n    }\n\n    function isAccountFrozen(address account) public view returns (bool) {\n        return _frozenAccounts[account];\n    }\n}\n\n\n\n\n\n\n\n\n\n\n\n\n",
  "sourcePath": "/workspace/Eth-Avax-module-4-project/contracts/Degen_token.sol",
  "compiler": {
    "name": "solc",
    "version": "0.8.9+commit.e5eed63a.Emscripten.clang"
  },
  "schemaVersion": "3.4.14",
  "updatedAt": "2023-07-20T17:54:44.565Z",
  "networkType": "ethereum",
  "devdoc": {
    "kind": "dev",
    "methods": {
      "allowance(address,address)": {
        "details": "See {IERC20-allowance}."
      },
      "approve(address,uint256)": {
        "details": "See {IERC20-approve}. NOTE: If `amount` is the maximum `uint256`, the allowance is not updated on `transferFrom`. This is semantically equivalent to an infinite approval. Requirements: - `spender` cannot be the zero address."
      },
      "balanceOf(address)": {
        "details": "See {IERC20-balanceOf}."
      },
      "burn(uint256)": {
        "details": "Destroys `amount` tokens from the caller. See {ERC20-_burn}."
      },
      "burnFrom(address,uint256)": {
        "details": "Destroys `amount` tokens from `account`, deducting from the caller's allowance. See {ERC20-_burn} and {ERC20-allowance}. Requirements: - the caller must have allowance for ``accounts``'s tokens of at least `amount`."
      },
      "decimals()": {
        "details": "Returns the number of decimals used to get its user representation. For example, if `decimals` equals `2`, a balance of `505` tokens should be displayed to a user as `5.05` (`505 / 10 ** 2`). Tokens usually opt for a value of 18, imitating the relationship between Ether and Wei. This is the default value returned by this function, unless it's overridden. NOTE: This information is only used for _display_ purposes: it in no way affects any of the arithmetic of the contract, including {IERC20-balanceOf} and {IERC20-transfer}."
      },
      "decreaseAllowance(address,uint256)": {
        "details": "Atomically decreases the allowance granted to `spender` by the caller. This is an alternative to {approve} that can be used as a mitigation for problems described in {IERC20-approve}. Emits an {Approval} event indicating the updated allowance. Requirements: - `spender` cannot be the zero address. - `spender` must have allowance for the caller of at least `subtractedValue`."
      },
      "increaseAllowance(address,uint256)": {
        "details": "Atomically increases the allowance granted to `spender` by the caller. This is an alternative to {approve} that can be used as a mitigation for problems described in {IERC20-approve}. Emits an {Approval} event indicating the updated allowance. Requirements: - `spender` cannot be the zero address."
      },
      "name()": {
        "details": "Returns the name of the token."
      },
      "owner()": {
        "details": "Returns the address of the current owner."
      },
      "renounceOwnership()": {
        "details": "Leaves the contract without owner. It will not be possible to call `onlyOwner` functions. Can only be called by the current owner. NOTE: Renouncing ownership will leave the contract without an owner, thereby disabling any functionality that is only available to the owner."
      },
      "symbol()": {
        "details": "Returns the symbol of the token, usually a shorter version of the name."
      },
      "totalSupply()": {
        "details": "See {IERC20-totalSupply}."
      },
      "transferOwnership(address)": {
        "details": "Transfers ownership of the contract to a new account (`newOwner`). Can only be called by the current owner."
      }
    },
    "version": 1
  },
  "userdoc": {
    "kind": "user",
    "methods": {},
    "version": 1
  }
}